:100AC500C0F9A4B0999282F880908883C6A1868ED9
:0D0AD500020A0000010C00010900010800E8
:10077100E4F527F526F525F524F5A0900AC593F5AE
:1007810090759540759630120003120AE3E4F50C5A
:1007910020A60BC3E50C94027480948040F2E4F52A
:1007A1000CD28CC2AB20A6FDC28CE4F537F53675B0
:1007B10035C07534C0FFFE7D207C4112065A7B8016
:1007C1007A5F7911784712001E8F2F8E2E8D2D8C16
:1007D1002CAF8CEFAD8AFCEC1201C98F2B8E2A8DC8
:1007E100298C28AF2FAE2EAD2DAC2CAB2BAA2AA96C
:1007F10029A82812001EE4FBFAF978401201278F7C
:100801002B8E2A8D298C28E4FFFE7D207C41AB2B89
:10081100AA2AA929A82812001E1202027C277D10EB
:100821001204C18C0A8D0BC3E50B9420E50A9403D5
:100831005015E50B24D4FFE50A34FEFE7C007D193A
:1008410012046C8F098002C2A4D3E50B942CE50A33
:0F0851009401500375091E7F32120AAD02078B06
:100A64007F04EFD394007480948040127E71EED39F
:0E0A740094007480948040031E80F31F80E481
:010A82002251
:100A83007F97EFD394007480948040127E1DEED341
:0E0A930094007480948040031E80F31F80E462
:010AA1002232
:0B0AA20075F00A84E5F093F5907F01E9
:080AAD00AD07120A64DDFB2213
:10000300758911C28DC28C758D94E4F58BD2AFD2F4
:04001300ABD28E22BC
:100AB500758AF7758CFFD28C308DFDC28CC28D2264
:080AE300D2A5120AB5C2A5223A
:04098600AB07AA060B
:10098A00E4FCF523F522F5217D0A12046C8D217C05
:10099A00007D0AAF03AE0212046C7C007D6412046F
:1009AA006C8D227C007D64AF03AE0212046C7C0362
:1009BA007DE812046C8D23AE02AF037C037DE8123E
:1009CA00046CAC0743A00FC2A3E52175F00A84E5C5
:1009DA00F0900AC5120AA8D2A3C2A2E52275F00AAB
:1009EA0084E5F093547F120AA9D2A2C2A1E5231288
:0C09FA000AA2D2A1C2A0EC120AA2D2A054
:010A060022CD
:03001B00020A07CF
:100A0700C0E0C0F0C083C082C0D075D000C000C0B5
:100A170002C003C004C005C006C007758D94758B5E
:100A2700001509AF0BAE0A120986AF097E00EF70F9
:100A370002B2A4C3EF9414EE6480948040040509C5
:100A4700D2A4050CD007D006D005D004D003D0021D
:0D0A5700D000D0D0D082D083D0F0D0E032DB
:10001E00EC4D6011E8497017ED33EC3304600DE4DC
:10002E00FCFFFEFD22E933E8330470F802026E1283
:10003E00023958046009E4CC248150062850090284
:10004E000278284003020275C0E0EB4A7044B98082
:10005E0006D0E0FB020264EF4E701CBD8008EBFF81
:10006E00EAFEE9FD80EBE98DF0A4FEE5F002010762
:10007E00E9CDF9EAFEEBFFEF89F0A4FCE5F0CE89BD
:10008E00F0A42EFFE435F0CD89F0A42DFEE435F07A
:10009E008067EF4E7005BD80D780C3EF8BF0A4ACA8
:1000AE00F0EE8BF0A42CFCE435F0F8EF8AF0A42CE3
:1000BE00E5F038FCE433CB8DF0A42CFCE5F03BF8F6
:1000CE00EE8AF0A42CFCE5F038F8E433CF89F0A4E6
:1000DE002CFCE5F038CF3400CE89F0A42FFFE5F0EC
:1000EE003EFEE433C98DF0A42EFEE5F039CD8AF044
:1000FE00A42FFFE5F03EFEE43DFD33D0E0FB5007BC
:10010E000BBB000F020278EC2CFCEF33FFEE33FE3C
:06011E00ED33FD0202506A
:10012400020278EC5D046005E85904700302026E73
:10013400120239580460F6EC4860F2EC7004FDFEDB
:10014400FF22C860DB2481C85009C39860025006AE
:100154000202759850CAF582E9294B4A7005AB82B0
:1001640002026475F0007C1A7880C3EF9BEE9AED6E
:1001740099400DC3EF9BFFEE9AFEED99FDE842F026
:10018400DC23ACF0D0E0FFD0E0FED0E0FDAB822079
:10019400E7101BEB60BAEC2CFCEF33FFEE33FEED03
:1001A40033FD020250E803F830E705C0F075F000B3
:1001B400EF2FFFEE33FEED33FD40B830E7C280AAE7
:1001C40075F020800E75F010800575F0087D007EB6
:1001D400007F003392D530D5031204F7EC3340107E
:1001E400EF33FFEE33FEED33FDEC33FCD5F0ED22BF
:0E01F400E5F0247EA2D513CC92E7CDCEFF22FB
:10020200EDD2E7CD33EC3392D524814006E4FFFEF4
:10021200FDFC22FCE4CFCECDCC24E0501174FF8053
:10022200EDC3CC13CCCD13CDCE13CECF13CF0470F0
:07023200F030D5DE0204F7F5
:10065A008F338E328D318C30E4FFFE7D807C3FAB50
:10066A0033AA32A931A8301203957009AF33AE32DA
:10067A00AD31AC3022AF33AE32AD31AC3012028381
:10068A00FBAF37AE36AD35AC34120283FFBF01087B
:10069A00E4FFFE7D807C3F22EF64046022EB640469
:1006AA00601DBB0127E4FFFEFDFCAB37AA36A93566
:1006BA00A83412039560084006E4FFFEFDFC22748C
:1006CA00FFF537F536F535F534020768E4F538F500
:1006DA0039FFFEFDFCAB33AA32A931A830120395CB
:1006EA00504BAF37AE36AD35AC341202028E388F6E
:1006FA0039AC38AD39EC1201C9C8ECC8C9EDC9CA60
:10070A00EECACBEFCBAF37AE36AD35AC341202A062
:10071A00E4FBFAF9F812039570A5AF33AE32AD31A6
:10072A00AC3012040E8F338E328D318C30AF33AE33
:10073A0032AD31AC30120559AB37AA36A935A834D7
:10074A0012001E1208988F378E368D358C34E53993
:10075A0030E00B12040E8F378E368D358C34AF375E
:07076A00AE36AD35AC3422C0
:10023900E9D2E7C933E833F892D5EDD2E7CD33EC0B
:0702490033FC5002B2D52284
:10025000EC30E7100FBF000C0EBE00080DBD00040F
:100260000BEB6014A2D5EB13FCED92E7FD2274FFBB
:10027000FCFDFEFF22E480F8A2D574FF13FC7D8014
:03028000E480EF28
:10028300ED33EC33601004700FED547F700574028E
:0A02930092E0227404220422E42207
:10029D0002026EE86480F8E933E83360110460F01F
:1002AD00ED33EC337009E8FCE9FDEAFEEBFF2204C7
:1002BD0060DED3EB9FEA9EE99DE8C2E78CF0C2F7C2
:1002CD0095F0400CE8CCF8E9CDF9EACEFAEBCFFB8E
:1002DD0012023985D0F05804700320D5B3E80470AC
:1002ED00075002B2D502027892D5EC0460F7E4CC47
:1002FD00C0E0C398F8603B94186008400DD0E0FB57
:10030D00020250E4FBFAC9FC8028E830E406E4C997
:10031D00FBE4CAFCE830E305E4C9CACBFCE85407AA
:10032D006010F8C3E913F9EA13FAEB13FBEC13FCB5
:10033D00D8F130F52FC3E49CFCEF9BFFEE9AFEED58
:10034D0099FDD0E0FBEF4E4D4C701222DB03020203
:10035D0075EC2CFCEF33FFEE33FEED33FDED30E7A6
:10036D00EB020250EF2BFFEE3AFEED39FDD0E0FB34
:10037D0050130BBB0003020278ED13FDEE13FEEFDD
:08038D0013FFEC13FC02025007
:1003950074F8CC6480CCC86480C8F58204604FC30F
:1003A500EB9FF5F0EA9E42F0E99D42F0E89C45F0AE
:1003B500603C501DE5825FFFE582D313CB5BCBF438
:1003C5002B5582FB50280ABA002409B90020088061
:1003D5001DE5825BFBE582D313CF5FCFF4C3132FFB
:1003E5005582FF50090EBE00050DBD00010CC3EB83
:1003F5009FF5F0EA9E42F0E99D42F0E89C45F060E9
:0904050007CC4820E701B3EC220A
:10040E00ED33EC33600A047003BD8004ECB2E7FCFC
:01041E0022BB
:1008600033DA929E35B16011377FE5FE39218489F4
:100870003AAEC3FF3C1D955B3D6358473E75FDF0A6
:100880003F3172183F800000C2D502027802026E2A
:10089000BD80FA50F3020275ED33EC330460F17B56
:1008A0003B7AAA79B8783F12001EED33EC3392D52B
:1008B000247B5011A2D570DB500BED4480240450F2
:1008C00004A2D580CEEFFBEEFAEDF9ECF8120202AD
:1008D000EFF582F404FC1201CE1202A4C08290084B
:1008E00060740912042EED33CC33D0F092D525F08C
:0A08F000A2D57001C313CC13FD2242
:100525003E9248DA3ECCCCCD3F2AAAAB4000000033
:100535003F8000003F9837F03FB504F33FD744FCB8
:100545003E3172173EB172173F0515913EDE5BD9FC
:10055500D2008002C200EDD2E7F8CD33EC3304704F
:100565000BBD800592D502027802026E40FBD314C2
:1005750060F2F5F07C3FEE7A00C39496C8948B4008
:10058500230AC89469C8941A401A0AC89468C8947A
:100595001F40110AC8945AC89425400805F07A00EE
:1005A500CDC2E7CDC0F08C3A8D3B8E3C8F3DEA2322
:1005B50023C0E02435F582E43405F58312051512D0
:1005C50002A4ECC0E0EDC0E0EEC0E0EFC0E0120533
:1005D50005A83AA93BAA3CAB3D1202A0D0E0FBD04E
:1005E500E0FAD0E0F9D0E0B2E7F81201278C3A8DB5
:1005F5003B8E3C8F3D900525740312041FA83AA934
:100605003BAA3CAB3D12001ED0E0600F2441F582B1
:10061500E43405F5831205151202A48C3A8D3B8E40
:100625003C8F3DD0E0C3947FFDE49400FC1201C9EA
:100635007B187A727931783F12001EA83AA93BAA35
:100645003CAB3D1202A430000B7BD97A5B79DE7896
:050655003E12001E2210
:10041F00C0E0EFFBEEFAEDF9ECF812001ED0E0F5BC
:10042F00F0EFFBEEFAEDF9ECF8120505A3A3A3A389
:10043F00E8C0E0E9C0E0EAC0E0EBC0E0C0F01200C5
:10044F001E120515A3A3A3A31202A4D0F0D0E0FBA4
:0D045F00D0E0FAD0E0F9D0E0F8D5F0D422DA
:030000000208FAF9
:0C08FA00787FE4F6D8FD75813D020941CD
:10046C00BC000BBE0029EF8DF084FFADF022E4CC74
:10047C00F875F008EF2FFFEE33FEEC33FCEE9DEC3D
:10048C00984005FCEE9DFE0FD5F0E9E4CEFD22ED83
:10049C00F8F5F0EE8420D21CFEADF075F008EF2FCD
:1004AC00FFED33FD4007985006D5F0F222C398FDBE
:0504BC000FD5F0EA225B
:1004C100C2D5EC30E709B2D5E4C39DFDE49CFCEE56
:1004D10030E715B2D5E4C39FFFE49EFE12046CC35E
:1004E100E49DFDE49CFC800312046C30D507C3E459
:0604F1009FFFE49EFE22C5
:0E04F700C3E49FFFE49EFEE49DFDE49CFC2216
:10050500E493FC740193FD740293FE740393FF223C
:10051500E493F8740193F9740293FA740393FB223C
:10090600020771E493A3F8E493A34003F68001F28F
:1009160008DFF48029E493A3F85407240CC8C333F2
:10092600C4540F4420C8834004F456800146F6DFC1
:10093600E4800B0102040810204080900AD5E47E72
:10094600019360BCA3FF543F30E509541FFEE493B6
:10095600A360010ECF54C025E060A840B8E493A37D
:10096600FAE493A3F8E493A3C8C582C8CAC583CAA8
:10097600F0A3C8C582C8CAC583CADFE9DEE780BE60
:010AE2000013
:00000001FF
